{
  "_format": "hh-sol-artifact-1",
  "contractName": "OKTPool",
  "sourceName": "contracts/Pool/OKTPool.sol",
  "abi": [
    {
      "inputs": [
        {
          "internalType": "address",
          "name": "Lemd_",
          "type": "address"
        },
        {
          "internalType": "address",
          "name": "token_",
          "type": "address"
        },
        {
          "internalType": "uint256",
          "name": "starttime_",
          "type": "uint256"
        }
      ],
      "stateMutability": "nonpayable",
      "type": "constructor"
    },
    {
      "anonymous": false,
      "inputs": [
        {
          "indexed": true,
          "internalType": "address",
          "name": "previousOwner",
          "type": "address"
        },
        {
          "indexed": true,
          "internalType": "address",
          "name": "newOwner",
          "type": "address"
        }
      ],
      "name": "OwnershipTransferred",
      "type": "event"
    },
    {
      "anonymous": false,
      "inputs": [
        {
          "indexed": false,
          "internalType": "uint256",
          "name": "reward",
          "type": "uint256"
        }
      ],
      "name": "RewardAdded",
      "type": "event"
    },
    {
      "anonymous": false,
      "inputs": [
        {
          "indexed": true,
          "internalType": "address",
          "name": "user",
          "type": "address"
        },
        {
          "indexed": false,
          "internalType": "uint256",
          "name": "reward",
          "type": "uint256"
        }
      ],
      "name": "RewardPaid",
      "type": "event"
    },
    {
      "anonymous": false,
      "inputs": [
        {
          "indexed": true,
          "internalType": "address",
          "name": "user",
          "type": "address"
        },
        {
          "indexed": false,
          "internalType": "uint256",
          "name": "amount",
          "type": "uint256"
        }
      ],
      "name": "Staked",
      "type": "event"
    },
    {
      "anonymous": false,
      "inputs": [
        {
          "indexed": true,
          "internalType": "address",
          "name": "user",
          "type": "address"
        },
        {
          "indexed": false,
          "internalType": "uint256",
          "name": "amount",
          "type": "uint256"
        }
      ],
      "name": "Withdrawn",
      "type": "event"
    },
    {
      "inputs": [],
      "name": "DURATION",
      "outputs": [
        {
          "internalType": "uint256",
          "name": "",
          "type": "uint256"
        }
      ],
      "stateMutability": "view",
      "type": "function"
    },
    {
      "inputs": [],
      "name": "Lemd",
      "outputs": [
        {
          "internalType": "contract IERC20",
          "name": "",
          "type": "address"
        }
      ],
      "stateMutability": "view",
      "type": "function"
    },
    {
      "inputs": [
        {
          "internalType": "address",
          "name": "account",
          "type": "address"
        }
      ],
      "name": "balanceOf",
      "outputs": [
        {
          "internalType": "uint256",
          "name": "",
          "type": "uint256"
        }
      ],
      "stateMutability": "view",
      "type": "function"
    },
    {
      "inputs": [],
      "name": "decimals",
      "outputs": [
        {
          "internalType": "uint256",
          "name": "",
          "type": "uint256"
        }
      ],
      "stateMutability": "view",
      "type": "function"
    },
    {
      "inputs": [
        {
          "internalType": "address",
          "name": "",
          "type": "address"
        }
      ],
      "name": "deposits",
      "outputs": [
        {
          "internalType": "uint256",
          "name": "",
          "type": "uint256"
        }
      ],
      "stateMutability": "view",
      "type": "function"
    },
    {
      "inputs": [
        {
          "internalType": "address",
          "name": "account",
          "type": "address"
        }
      ],
      "name": "earned",
      "outputs": [
        {
          "internalType": "uint256",
          "name": "",
          "type": "uint256"
        }
      ],
      "stateMutability": "view",
      "type": "function"
    },
    {
      "inputs": [],
      "name": "exit",
      "outputs": [],
      "stateMutability": "nonpayable",
      "type": "function"
    },
    {
      "inputs": [],
      "name": "getReward",
      "outputs": [],
      "stateMutability": "nonpayable",
      "type": "function"
    },
    {
      "inputs": [
        {
          "internalType": "uint256",
          "name": "starttime_",
          "type": "uint256"
        },
        {
          "internalType": "uint256",
          "name": "maximum_",
          "type": "uint256"
        }
      ],
      "name": "initialize",
      "outputs": [],
      "stateMutability": "nonpayable",
      "type": "function"
    },
    {
      "inputs": [],
      "name": "lastTimeRewardApplicable",
      "outputs": [
        {
          "internalType": "uint256",
          "name": "",
          "type": "uint256"
        }
      ],
      "stateMutability": "view",
      "type": "function"
    },
    {
      "inputs": [],
      "name": "lastUpdateTime",
      "outputs": [
        {
          "internalType": "uint256",
          "name": "",
          "type": "uint256"
        }
      ],
      "stateMutability": "view",
      "type": "function"
    },
    {
      "inputs": [],
      "name": "maximum",
      "outputs": [
        {
          "internalType": "uint256",
          "name": "",
          "type": "uint256"
        }
      ],
      "stateMutability": "view",
      "type": "function"
    },
    {
      "inputs": [
        {
          "internalType": "uint256",
          "name": "reward",
          "type": "uint256"
        }
      ],
      "name": "notifyRewardAmount",
      "outputs": [],
      "stateMutability": "nonpayable",
      "type": "function"
    },
    {
      "inputs": [],
      "name": "owner",
      "outputs": [
        {
          "internalType": "address",
          "name": "",
          "type": "address"
        }
      ],
      "stateMutability": "view",
      "type": "function"
    },
    {
      "inputs": [],
      "name": "periodFinish",
      "outputs": [
        {
          "internalType": "uint256",
          "name": "",
          "type": "uint256"
        }
      ],
      "stateMutability": "view",
      "type": "function"
    },
    {
      "inputs": [],
      "name": "renounceOwnership",
      "outputs": [],
      "stateMutability": "nonpayable",
      "type": "function"
    },
    {
      "inputs": [],
      "name": "rewardDistribution",
      "outputs": [
        {
          "internalType": "address",
          "name": "",
          "type": "address"
        }
      ],
      "stateMutability": "view",
      "type": "function"
    },
    {
      "inputs": [],
      "name": "rewardPerToken",
      "outputs": [
        {
          "internalType": "uint256",
          "name": "",
          "type": "uint256"
        }
      ],
      "stateMutability": "view",
      "type": "function"
    },
    {
      "inputs": [],
      "name": "rewardPerTokenStored",
      "outputs": [
        {
          "internalType": "uint256",
          "name": "",
          "type": "uint256"
        }
      ],
      "stateMutability": "view",
      "type": "function"
    },
    {
      "inputs": [],
      "name": "rewardRate",
      "outputs": [
        {
          "internalType": "uint256",
          "name": "",
          "type": "uint256"
        }
      ],
      "stateMutability": "view",
      "type": "function"
    },
    {
      "inputs": [
        {
          "internalType": "address",
          "name": "",
          "type": "address"
        }
      ],
      "name": "rewards",
      "outputs": [
        {
          "internalType": "uint256",
          "name": "",
          "type": "uint256"
        }
      ],
      "stateMutability": "view",
      "type": "function"
    },
    {
      "inputs": [
        {
          "internalType": "address",
          "name": "_rewardDistribution",
          "type": "address"
        }
      ],
      "name": "setRewardDistribution",
      "outputs": [],
      "stateMutability": "nonpayable",
      "type": "function"
    },
    {
      "inputs": [
        {
          "internalType": "uint256",
          "name": "amount",
          "type": "uint256"
        }
      ],
      "name": "stake",
      "outputs": [],
      "stateMutability": "payable",
      "type": "function"
    },
    {
      "inputs": [],
      "name": "stakeETH",
      "outputs": [],
      "stateMutability": "payable",
      "type": "function"
    },
    {
      "inputs": [],
      "name": "starttime",
      "outputs": [
        {
          "internalType": "uint256",
          "name": "",
          "type": "uint256"
        }
      ],
      "stateMutability": "view",
      "type": "function"
    },
    {
      "inputs": [],
      "name": "token",
      "outputs": [
        {
          "internalType": "contract IERC20",
          "name": "",
          "type": "address"
        }
      ],
      "stateMutability": "view",
      "type": "function"
    },
    {
      "inputs": [],
      "name": "totalSupply",
      "outputs": [
        {
          "internalType": "uint256",
          "name": "",
          "type": "uint256"
        }
      ],
      "stateMutability": "view",
      "type": "function"
    },
    {
      "inputs": [
        {
          "internalType": "address",
          "name": "newOwner",
          "type": "address"
        }
      ],
      "name": "transferOwnership",
      "outputs": [],
      "stateMutability": "nonpayable",
      "type": "function"
    },
    {
      "inputs": [
        {
          "internalType": "address",
          "name": "",
          "type": "address"
        }
      ],
      "name": "userRewardPerTokenPaid",
      "outputs": [
        {
          "internalType": "uint256",
          "name": "",
          "type": "uint256"
        }
      ],
      "stateMutability": "view",
      "type": "function"
    },
    {
      "inputs": [
        {
          "internalType": "uint256",
          "name": "amount",
          "type": "uint256"
        }
      ],
      "name": "withdraw",
      "outputs": [],
      "stateMutability": "nonpayable",
      "type": "function"
    }
  ],
  "bytecode": "0x608060405262127500600655601260075560006009556000600a5534801561002657600080fd5b5060405162001bd638038062001bd68339818101604052606081101561004b57600080fd5b5080516020820151604090920151909190600061006f6001600160e01b0361017616565b600380546001600160a01b0319166001600160a01b038316908117909155604051919250906000907f8be0079c531659141344cd1fd0a4f28419497f9722a3daafe3b4186f6b6457e0908290a350600580546001600160a01b038086166001600160a01b03199283161790925560008054928516929091168217905560088290551561015e57816001600160a01b031663313ce5676040518163ffffffff1660e01b815260040160206040518083038186803b15801561012e57600080fd5b505afa158015610142573d6000803e3d6000fd5b505050506040513d602081101561015857600080fd5b50516007555b600754600a0a6107d002600d8190555050505061017a565b3390565b611a4c806200018a6000396000f3fe6080604052600436106101cc5760003560e01c80638b876347116100f7578063df136d6511610095578063f2fde38b11610064578063f2fde38b146104f9578063fc0c546a1461052c578063fc436c7e14610541578063fc7e286d14610556576101cc565b8063df136d651461048a578063e4a301161461049f578063e9fad8ee146104cf578063ebe2b12b146104e4576101cc565b8063a694fc3a116100d1578063a694fc3a1461043b578063c8f33c9114610458578063cd3daf9d1461046d578063dceb986d14610482576101cc565b80638b876347146103de5780638da58897146104115780638da5cb5b14610426576101cc565b8063313ce5671161016f57806370a082311161013e57806370a082311461036c578063715018a61461039f5780637b0a47ee146103b457806380faa57d146103c9576101cc565b8063313ce567146103035780633c6b16ab146103185780633d18b9121461034257806352342f1314610357576101cc565b8063101114cf116101ab578063101114cf1461027e57806318160ddd146102af5780631be05289146102c45780632e1a7d4d146102d9576101cc565b80628cc262146101d15780630700037d146102165780630d68b76114610249575b600080fd5b3480156101dd57600080fd5b50610204600480360360208110156101f457600080fd5b50356001600160a01b0316610589565b60408051918252519081900360200190f35b34801561022257600080fd5b506102046004803603602081101561023957600080fd5b50356001600160a01b031661060f565b34801561025557600080fd5b5061027c6004803603602081101561026c57600080fd5b50356001600160a01b0316610621565b005b34801561028a57600080fd5b506102936106a5565b604080516001600160a01b039092168252519081900360200190f35b3480156102bb57600080fd5b506102046106b4565b3480156102d057600080fd5b506102046106bb565b3480156102e557600080fd5b5061027c600480360360208110156102fc57600080fd5b50356106c1565b34801561030f57600080fd5b50610204610823565b34801561032457600080fd5b5061027c6004803603602081101561033b57600080fd5b5035610829565b34801561034e57600080fd5b5061027c610a1d565b34801561036357600080fd5b50610204610b31565b34801561037857600080fd5b506102046004803603602081101561038f57600080fd5b50356001600160a01b0316610b37565b3480156103ab57600080fd5b5061027c610b52565b3480156103c057600080fd5b50610204610bfe565b3480156103d557600080fd5b50610204610c04565b3480156103ea57600080fd5b506102046004803603602081101561040157600080fd5b50356001600160a01b0316610c17565b34801561041d57600080fd5b50610204610c29565b34801561043257600080fd5b50610293610c2f565b61027c6004803603602081101561045157600080fd5b5035610c3e565b34801561046457600080fd5b50610204610e05565b34801561047957600080fd5b50610204610e0b565b61027c610e5f565b34801561049657600080fd5b5061020461105f565b3480156104ab57600080fd5b5061027c600480360360408110156104c257600080fd5b5080359060200135611065565b3480156104db57600080fd5b5061027c6110d2565b3480156104f057600080fd5b506102046110ed565b34801561050557600080fd5b5061027c6004803603602081101561051c57600080fd5b50356001600160a01b03166110f3565b34801561053857600080fd5b506102936111f6565b34801561054d57600080fd5b50610293611205565b34801561056257600080fd5b506102046004803603602081101561057957600080fd5b50356001600160a01b0316611214565b6001600160a01b0381166000908152600f6020908152604080832054600e90925282205461060991906105fd90670de0b6b3a7640000906105f1906105dc906105d0610e0b565b9063ffffffff61122616565b6105e588610b37565b9063ffffffff61128316565b9063ffffffff6112e316565b9063ffffffff61134a16565b92915050565b600f6020526000908152604090205481565b6106296113a4565b6001600160a01b031661063a610c2f565b6001600160a01b031614610683576040805162461bcd60e51b815260206004820181905260248201526000805160206119ac833981519152604482015290519081900360640190fd5b600480546001600160a01b0319166001600160a01b0392909216919091179055565b6004546001600160a01b031681565b6001545b90565b60065481565b336106ca610e0b565b600c556106d5610c04565b600b556001600160a01b0381161561071c576106f081610589565b6001600160a01b0382166000908152600f6020908152604080832093909355600c54600e909152919020555b60085442101561075f576040805162461bcd60e51b8152602060048201526009602482015268139bdd081cdd185c9d60ba1b604482015290519081900360640190fd5b600082116107a8576040805162461bcd60e51b8152602060048201526011602482015270043616e6e6f74207769746864726177203607c1b604482015290519081900360640190fd5b336000908152601060205260409020546107c8908363ffffffff61122616565b336000908152601060205260409020556107e1826113a8565b6107e9610a1d565b60408051838152905133917f7084f5476618d8e60b11ef0d7d3f06914655adb8793e28ff7f018d4c76d505d5919081900360200190a25050565b60075481565b6004546001600160a01b031661083d6113a4565b6001600160a01b0316146108825760405162461bcd60e51b81526004018080602001828103825260218152602001806119cc6021913960400191505060405180910390fd5b600061088c610e0b565b600c55610897610c04565b600b556001600160a01b038116156108de576108b281610589565b6001600160a01b0382166000908152600f6020908152604080832093909355600c54600e909152919020555b6008544211156109b057600954421061090d5760065461090590839063ffffffff6112e316565b600a5561095c565b600954600090610923904263ffffffff61122616565b9050600061093c600a548361128390919063ffffffff16565b600654909150610956906105f1868463ffffffff61134a16565b600a5550505b42600b819055600654610975919063ffffffff61134a16565b6009556040805183815290517fde88a922e0d3b88b24e9623efeb464919c6bf9f66857a65e2bfcf2ce87a9433d9181900360200190a1610a19565b6006546109c490839063ffffffff6112e316565b600a55600854600b8190556006546109e2919063ffffffff61134a16565b6009556040805183815290517fde88a922e0d3b88b24e9623efeb464919c6bf9f66857a65e2bfcf2ce87a9433d9181900360200190a15b5050565b33610a26610e0b565b600c55610a31610c04565b600b556001600160a01b03811615610a7857610a4c81610589565b6001600160a01b0382166000908152600f6020908152604080832093909355600c54600e909152919020555b600854421015610abb576040805162461bcd60e51b8152602060048201526009602482015268139bdd081cdd185c9d60ba1b604482015290519081900360640190fd5b6000610ac633610589565b90508015610a1957336000818152600f6020526040812055600554610af7916001600160a01b03909116908361142e565b60408051828152905133917fe2403640ba68fed3a2f88b7557551d1993f84b99bb10ff833f0cf8db0c5e0486919081900360200190a25050565b600d5481565b6001600160a01b031660009081526002602052604090205490565b610b5a6113a4565b6001600160a01b0316610b6b610c2f565b6001600160a01b031614610bb4576040805162461bcd60e51b815260206004820181905260248201526000805160206119ac833981519152604482015290519081900360640190fd5b6003546040516000916001600160a01b0316907f8be0079c531659141344cd1fd0a4f28419497f9722a3daafe3b4186f6b6457e0908390a3600380546001600160a01b0319169055565b600a5481565b6000610c1242600954611485565b905090565b600e6020526000908152604090205481565b60085481565b6003546001600160a01b031690565b33610c47610e0b565b600c55610c52610c04565b600b556001600160a01b03811615610c9957610c6d81610589565b6001600160a01b0382166000908152600f6020908152604080832093909355600c54600e909152919020555b600854421015610cdc576040805162461bcd60e51b8152602060048201526009602482015268139bdd081cdd185c9d60ba1b604482015290519081900360640190fd5b6000546001600160a01b0316610cf0573491505b60008211610d36576040805162461bcd60e51b815260206004820152600e60248201526d043616e6e6f74207374616b6520360941b604482015290519081900360640190fd5b33600090815260106020526040812054610d56908463ffffffff61134a16565b9050600d54811115610daf576040805162461bcd60e51b815260206004820152601e60248201527f4465706f73697420616d6f756e742065786365656473206d6178696d756d0000604482015290519081900360640190fd5b336000908152601060205260409020819055610dca8361149b565b60408051848152905133917f9e71bc8eea02a63969f509818f2dafb9254532904319f9dbda79b67bd34a5f3d919081900360200190a2505050565b600b5481565b6000610e156106b4565b610e225750600c546106b8565b610c12610e50610e306106b4565b6105f1670de0b6b3a76400006105e5600a546105e5600b546105d0610c04565b600c549063ffffffff61134a16565b33610e68610e0b565b600c55610e73610c04565b600b556001600160a01b03811615610eba57610e8e81610589565b6001600160a01b0382166000908152600f6020908152604080832093909355600c54600e909152919020555b600854421015610efd576040805162461bcd60e51b8152602060048201526009602482015268139bdd081cdd185c9d60ba1b604482015290519081900360640190fd5b60003411610f43576040805162461bcd60e51b815260206004820152600e60248201526d043616e6e6f74207374616b6520360941b604482015290519081900360640190fd5b6000546001600160a01b031615610f91576040805162461bcd60e51b815260206004820152600d60248201526c24b73b30b634b2103a37b5b2b760991b604482015290519081900360640190fd5b33600090815260106020526040812054610fb1903463ffffffff61134a16565b9050600d5481111561100a576040805162461bcd60e51b815260206004820152601e60248201527f4465706f73697420616d6f756e742065786365656473206d6178696d756d0000604482015290519081900360640190fd5b3360009081526010602052604090208190556110253461149b565b60408051348152905133917f9e71bc8eea02a63969f509818f2dafb9254532904319f9dbda79b67bd34a5f3d919081900360200190a25050565b600c5481565b61106d6113a4565b6001600160a01b031661107e610c2f565b6001600160a01b0316146110c7576040805162461bcd60e51b815260206004820181905260248201526000805160206119ac833981519152604482015290519081900360640190fd5b600891909155600d55565b6110e36110de33610b37565b6106c1565b6110eb610a1d565b565b60095481565b6110fb6113a4565b6001600160a01b031661110c610c2f565b6001600160a01b031614611155576040805162461bcd60e51b815260206004820181905260248201526000805160206119ac833981519152604482015290519081900360640190fd5b6001600160a01b03811661119a5760405162461bcd60e51b815260040180806020018281038252602681526020018061193f6026913960400191505060405180910390fd5b6003546040516001600160a01b038084169216907f8be0079c531659141344cd1fd0a4f28419497f9722a3daafe3b4186f6b6457e090600090a3600380546001600160a01b0319166001600160a01b0392909216919091179055565b6000546001600160a01b031681565b6005546001600160a01b031681565b60106020526000908152604090205481565b60008282111561127d576040805162461bcd60e51b815260206004820152601e60248201527f536166654d6174683a207375627472616374696f6e206f766572666c6f770000604482015290519081900360640190fd5b50900390565b60008261129257506000610609565b8282028284828161129f57fe5b04146112dc5760405162461bcd60e51b815260040180806020018281038252602181526020018061198b6021913960400191505060405180910390fd5b9392505050565b6000808211611339576040805162461bcd60e51b815260206004820152601a60248201527f536166654d6174683a206469766973696f6e206279207a65726f000000000000604482015290519081900360640190fd5b81838161134257fe5b049392505050565b6000828201838110156112dc576040805162461bcd60e51b815260206004820152601b60248201527f536166654d6174683a206164646974696f6e206f766572666c6f770000000000604482015290519081900360640190fd5b3390565b6001546113bb908263ffffffff61122616565b600155336000908152600260205260409020546113de908263ffffffff61122616565b33600090815260026020526040812091909155546001600160a01b031661140e576114093382611511565b61142b565b60005461142b906001600160a01b0316338363ffffffff61142e16565b50565b604080516001600160a01b038416602482015260448082018490528251808303909101815260649091019091526020810180516001600160e01b031663a9059cbb60e01b179052611480908490611610565b505050565b600081831061149457816112dc565b5090919050565b6001546114ae908263ffffffff61134a16565b600155336000908152600260205260409020546114d1908263ffffffff61134a16565b33600090815260026020526040812091909155546001600160a01b03161561142b5760005461142b906001600160a01b031633308463ffffffff6116c116565b604080516000808252602082019092526001600160a01b0384169083906040518082805190602001908083835b6020831061155d5780518252601f19909201916020918201910161153e565b6001836020036101000a03801982511681845116808217855250505050505090500191505060006040518083038185875af1925050503d80600081146115bf576040519150601f19603f3d011682016040523d82523d6000602084013e6115c4565b606091505b5050905080611480576040805162461bcd60e51b815260206004820152601360248201527211551217d514905394d1915497d19052531151606a1b604482015290519081900360640190fd5b6060611665826040518060400160405280602081526020017f5361666545524332303a206c6f772d6c6576656c2063616c6c206661696c6564815250856001600160a01b03166117219092919063ffffffff16565b8051909150156114805780806020019051602081101561168457600080fd5b50516114805760405162461bcd60e51b815260040180806020018281038252602a8152602001806119ed602a913960400191505060405180910390fd5b604080516001600160a01b0380861660248301528416604482015260648082018490528251808303909101815260849091019091526020810180516001600160e01b03166323b872dd60e01b17905261171b908590611610565b50505050565b60606117308484600085611738565b949350505050565b6060824710156117795760405162461bcd60e51b81526004018080602001828103825260268152602001806119656026913960400191505060405180910390fd5b61178285611894565b6117d3576040805162461bcd60e51b815260206004820152601d60248201527f416464726573733a2063616c6c20746f206e6f6e2d636f6e7472616374000000604482015290519081900360640190fd5b60006060866001600160a01b031685876040518082805190602001908083835b602083106118125780518252601f1990920191602091820191016117f3565b6001836020036101000a03801982511681845116808217855250505050505090500191505060006040518083038185875af1925050503d8060008114611874576040519150601f19603f3d011682016040523d82523d6000602084013e611879565b606091505b509150915061188982828661189a565b979650505050505050565b3b151590565b606083156118a95750816112dc565b8251156118b95782518084602001fd5b8160405162461bcd60e51b81526004018080602001828103825283818151815260200191508051906020019080838360005b838110156119035781810151838201526020016118eb565b50505050905090810190601f1680156119305780820380516001836020036101000a031916815260200191505b509250505060405180910390fdfe4f776e61626c653a206e6577206f776e657220697320746865207a65726f2061646472657373416464726573733a20696e73756666696369656e742062616c616e636520666f722063616c6c536166654d6174683a206d756c7469706c69636174696f6e206f766572666c6f774f776e61626c653a2063616c6c6572206973206e6f7420746865206f776e657243616c6c6572206973206e6f742072657761726420646973747269627574696f6e5361666545524332303a204552433230206f7065726174696f6e20646964206e6f742073756363656564a2646970667358221220091b88ef0b018719b42a97248bb99908944756003e219a3ac8cc26056385f79c64736f6c63430006020033",
  "linkReferences": {},
  "deployedLinkReferences": {}
}