{
  "_format": "hh-sol-artifact-1",
  "contractName": "FakeDai",
  "sourceName": "contracts/FakeDai.sol",
  "abi": [
    {
      "constant": true,
      "inputs": [],
      "name": "name",
      "outputs": [
        {
          "name": "",
          "type": "string"
        }
      ],
      "payable": false,
      "stateMutability": "view",
      "type": "function"
    },
    {
      "constant": false,
      "inputs": [
        {
          "name": "spender",
          "type": "address"
        },
        {
          "name": "amount",
          "type": "uint256"
        }
      ],
      "name": "approve",
      "outputs": [
        {
          "name": "",
          "type": "bool"
        }
      ],
      "payable": false,
      "stateMutability": "nonpayable",
      "type": "function"
    },
    {
      "constant": true,
      "inputs": [],
      "name": "totalSupply",
      "outputs": [
        {
          "name": "",
          "type": "uint256"
        }
      ],
      "payable": false,
      "stateMutability": "view",
      "type": "function"
    },
    {
      "constant": false,
      "inputs": [
        {
          "name": "sender",
          "type": "address"
        },
        {
          "name": "recipient",
          "type": "address"
        },
        {
          "name": "amount",
          "type": "uint256"
        }
      ],
      "name": "transferFrom",
      "outputs": [
        {
          "name": "",
          "type": "bool"
        }
      ],
      "payable": false,
      "stateMutability": "nonpayable",
      "type": "function"
    },
    {
      "constant": true,
      "inputs": [],
      "name": "INITIAL_SUPPLY",
      "outputs": [
        {
          "name": "",
          "type": "uint256"
        }
      ],
      "payable": false,
      "stateMutability": "view",
      "type": "function"
    },
    {
      "constant": true,
      "inputs": [],
      "name": "decimals",
      "outputs": [
        {
          "name": "",
          "type": "uint256"
        }
      ],
      "payable": false,
      "stateMutability": "view",
      "type": "function"
    },
    {
      "constant": false,
      "inputs": [
        {
          "name": "spender",
          "type": "address"
        },
        {
          "name": "addedValue",
          "type": "uint256"
        }
      ],
      "name": "increaseAllowance",
      "outputs": [
        {
          "name": "",
          "type": "bool"
        }
      ],
      "payable": false,
      "stateMutability": "nonpayable",
      "type": "function"
    },
    {
      "constant": true,
      "inputs": [
        {
          "name": "account",
          "type": "address"
        }
      ],
      "name": "balanceOf",
      "outputs": [
        {
          "name": "",
          "type": "uint256"
        }
      ],
      "payable": false,
      "stateMutability": "view",
      "type": "function"
    },
    {
      "constant": true,
      "inputs": [],
      "name": "symbol",
      "outputs": [
        {
          "name": "",
          "type": "string"
        }
      ],
      "payable": false,
      "stateMutability": "view",
      "type": "function"
    },
    {
      "constant": false,
      "inputs": [
        {
          "name": "spender",
          "type": "address"
        },
        {
          "name": "subtractedValue",
          "type": "uint256"
        }
      ],
      "name": "decreaseAllowance",
      "outputs": [
        {
          "name": "",
          "type": "bool"
        }
      ],
      "payable": false,
      "stateMutability": "nonpayable",
      "type": "function"
    },
    {
      "constant": false,
      "inputs": [
        {
          "name": "recipient",
          "type": "address"
        },
        {
          "name": "amount",
          "type": "uint256"
        }
      ],
      "name": "transfer",
      "outputs": [
        {
          "name": "",
          "type": "bool"
        }
      ],
      "payable": false,
      "stateMutability": "nonpayable",
      "type": "function"
    },
    {
      "constant": true,
      "inputs": [
        {
          "name": "owner",
          "type": "address"
        },
        {
          "name": "spender",
          "type": "address"
        }
      ],
      "name": "allowance",
      "outputs": [
        {
          "name": "",
          "type": "uint256"
        }
      ],
      "payable": false,
      "stateMutability": "view",
      "type": "function"
    },
    {
      "inputs": [],
      "payable": false,
      "stateMutability": "nonpayable",
      "type": "constructor"
    },
    {
      "anonymous": false,
      "inputs": [
        {
          "indexed": true,
          "name": "from",
          "type": "address"
        },
        {
          "indexed": true,
          "name": "to",
          "type": "address"
        },
        {
          "indexed": false,
          "name": "value",
          "type": "uint256"
        }
      ],
      "name": "Transfer",
      "type": "event"
    },
    {
      "anonymous": false,
      "inputs": [
        {
          "indexed": true,
          "name": "owner",
          "type": "address"
        },
        {
          "indexed": true,
          "name": "spender",
          "type": "address"
        },
        {
          "indexed": false,
          "name": "value",
          "type": "uint256"
        }
      ],
      "name": "Approval",
      "type": "event"
    }
  ],
  "bytecode": "0x60c0604052600860808190527f46616b652044414900000000000000000000000000000000000000000000000060a090815261003e916003919061024a565b506040805180820190915260038082527f444149000000000000000000000000000000000000000000000000000000000060209092019182526100839160049161024a565b50601260055569021e19e0c9bab24000006006553480156100a357600080fd5b506100b6336006546100bb60201b60201c565b6102e5565b6001600160a01b03821661013057604080517f08c379a000000000000000000000000000000000000000000000000000000000815260206004820152601f60248201527f45524332303a206d696e7420746f20746865207a65726f206164647265737300604482015290519081900360640190fd5b610149816002546101cf60201b6108691790919060201c565b6002556001600160a01b038216600090815260208181526040909120546101799183906108696101cf821b17901c565b6001600160a01b0383166000818152602081815260408083209490945583518581529351929391927fddf252ad1be2c89b69c2b068fc378daa952ba7f163c4a11628f55a4df523b3ef9281900390910190a35050565b60008282018381101561024357604080517f08c379a000000000000000000000000000000000000000000000000000000000815260206004820152601b60248201527f536166654d6174683a206164646974696f6e206f766572666c6f770000000000604482015290519081900360640190fd5b9392505050565b828054600181600116156101000203166002900490600052602060002090601f016020900481019282601f1061028b57805160ff19168380011785556102b8565b828001600101855582156102b8579182015b828111156102b857825182559160200191906001019061029d565b506102c49291506102c8565b5090565b6102e291905b808211156102c457600081556001016102ce565b90565b6109fa806102f46000396000f3fe608060405234801561001057600080fd5b50600436106100b45760003560e01c8063395093511161007157806339509351146101d657806370a082311461020257806395d89b4114610228578063a457c2d714610230578063a9059cbb1461025c578063dd62ed3e14610288576100b4565b806306fdde03146100b9578063095ea7b31461013657806318160ddd1461017657806323b872dd146101905780632ff2e9dc146101c6578063313ce567146101ce575b600080fd5b6100c16102b6565b6040805160208082528351818301528351919283929083019185019080838360005b838110156100fb5781810151838201526020016100e3565b50505050905090810190601f1680156101285780820380516001836020036101000a031916815260200191505b509250505060405180910390f35b6101626004803603604081101561014c57600080fd5b506001600160a01b038135169060200135610344565b604080519115158252519081900360200190f35b61017e610361565b60408051918252519081900360200190f35b610162600480360360608110156101a657600080fd5b506001600160a01b03813581169160208101359091169060400135610367565b61017e6103f4565b61017e6103fa565b610162600480360360408110156101ec57600080fd5b506001600160a01b038135169060200135610400565b61017e6004803603602081101561021857600080fd5b50356001600160a01b0316610454565b6100c161046f565b6101626004803603604081101561024657600080fd5b506001600160a01b0381351690602001356104ca565b6101626004803603604081101561027257600080fd5b506001600160a01b038135169060200135610538565b61017e6004803603604081101561029e57600080fd5b506001600160a01b038135811691602001351661054c565b6003805460408051602060026001851615610100026000190190941693909304601f8101849004840282018401909252818152929183018282801561033c5780601f106103115761010080835404028352916020019161033c565b820191906000526020600020905b81548152906001019060200180831161031f57829003601f168201915b505050505081565b6000610358610351610577565b848461057b565b50600192915050565b60025490565b600061037484848461066d565b6103ea84610380610577565b6103e585604051806060016040528060288152602001610939602891396001600160a01b038a166000908152600160205260408120906103be610577565b6001600160a01b03168152602081019190915260400160002054919063ffffffff6107cf16565b61057b565b5060019392505050565b60065481565b60055481565b600061035861040d610577565b846103e5856001600061041e610577565b6001600160a01b03908116825260208083019390935260409182016000908120918c16815292529020549063ffffffff61086916565b6001600160a01b031660009081526020819052604090205490565b6004805460408051602060026001851615610100026000190190941693909304601f8101849004840282018401909252818152929183018282801561033c5780601f106103115761010080835404028352916020019161033c565b60006103586104d7610577565b846103e5856040518060600160405280602581526020016109aa6025913960016000610501610577565b6001600160a01b03908116825260208083019390935260409182016000908120918d1681529252902054919063ffffffff6107cf16565b6000610358610545610577565b848461066d565b6001600160a01b03918216600090815260016020908152604080832093909416825291909152205490565b3390565b6001600160a01b0383166105c357604051600160e51b62461bcd0281526004018080602001828103825260248152602001806109866024913960400191505060405180910390fd5b6001600160a01b03821661060b57604051600160e51b62461bcd0281526004018080602001828103825260228152602001806108f16022913960400191505060405180910390fd5b6001600160a01b03808416600081815260016020908152604080832094871680845294825291829020859055815185815291517f8c5be1e5ebec7d5bd14f71427d1e84f3dd0314c0f7b2291e5b200ac8c7c3b9259281900390910190a3505050565b6001600160a01b0383166106b557604051600160e51b62461bcd0281526004018080602001828103825260258152602001806109616025913960400191505060405180910390fd5b6001600160a01b0382166106fd57604051600160e51b62461bcd0281526004018080602001828103825260238152602001806108ce6023913960400191505060405180910390fd5b61074081604051806060016040528060268152602001610913602691396001600160a01b038616600090815260208190526040902054919063ffffffff6107cf16565b6001600160a01b038085166000908152602081905260408082209390935590841681522054610775908263ffffffff61086916565b6001600160a01b038084166000818152602081815260409182902094909455805185815290519193928716927fddf252ad1be2c89b69c2b068fc378daa952ba7f163c4a11628f55a4df523b3ef92918290030190a3505050565b6000818484111561086157604051600160e51b62461bcd0281526004018080602001828103825283818151815260200191508051906020019080838360005b8381101561082657818101518382015260200161080e565b50505050905090810190601f1680156108535780820380516001836020036101000a031916815260200191505b509250505060405180910390fd5b505050900390565b6000828201838110156108c65760408051600160e51b62461bcd02815260206004820152601b60248201527f536166654d6174683a206164646974696f6e206f766572666c6f770000000000604482015290519081900360640190fd5b939250505056fe45524332303a207472616e7366657220746f20746865207a65726f206164647265737345524332303a20617070726f766520746f20746865207a65726f206164647265737345524332303a207472616e7366657220616d6f756e7420657863656564732062616c616e636545524332303a207472616e7366657220616d6f756e74206578636565647320616c6c6f77616e636545524332303a207472616e736665722066726f6d20746865207a65726f206164647265737345524332303a20617070726f76652066726f6d20746865207a65726f206164647265737345524332303a2064656372656173656420616c6c6f77616e63652062656c6f77207a65726fa165627a7a723058200a76d4ad0da6f87dac837859136eb591774215367fa56ac6f7bfdf18d697d2bf0029",
  "linkReferences": {},
  "deployedLinkReferences": {}
}